:020000041000EA
:1000000000000220251A001079170010631A001052
:10001000651A0010671A0010691A0010000000002D
:100020000000000000000000000000006B1A00103B
:100030006D1A0010000000006F1A0010711A0010F5
:10004000751A0010771A0010791A00107B1A001028
:100050007D1A00107F1A0010811A0010831A0010F8
:10006000851A0010871A0010891A00108B1A0010C8
:100070008D1A00108F1A0010911A0010931A001098
:10008000951A0010971A0010991A00109B1A001068
:100090009D1A00109F1A0010A11A0010A31A001038
:1000A00085160010A71A00107D160010AB1A00105C
:1000B000AD1A0010AF1A0010B11A0010B31A0010D8
:1000C000B51A0010B71A0010B91A0010BB1A0010A8
:1000D000BD1A0010BF1A0010C11A0010C31A001078
:1000E000C51A0010C71A0010C91A0010CB1A001048
:1000F000CD1A0010CF1A0010D11A0010D31A001018
:10010000D51A0010D71A0010D91A0010DB1A0010E7
:10011000DD1A0010DF1A0010E11A0010E31A0010B7
:10012000E51A0010E71A0010E91A0010EB1A001087
:10013000ED1A0010EF1A0010F11A0010F31A001057
:10014000F51A0010F71A0010F91A0010FB1A001027
:10015000FD1A0010FF1A0010011B0010031B0010F5
:10016000051B0010071B0010091B00100B1B0010C3
:100170000D1B00100F1B0010111B0010131B001093
:10018000151B0010171B0010191B00101B1B001063
:100190001D1B00101F1B0010211B0010231B001033
:1001A000251B0010271B0010291B00102B1B001003
:1001B0002D1B00102F1B0010311B0010331B0010D3
:1001C000351B0010371B0010391B00103B1B0010A3
:1001D0003D1B00103F1B0010411B0010431B001073
:1001E00010B5054C237833B9044B13B10448AFF371
:1001F00000800123237010BD000C002000000000CF
:1002000088FD021008B5034B1BB103490348AFF347
:10021000008008BD00000000040C002088FD0210D2
:100220000D480E49026808B50D4B1A4002600A6875
:1002300000F500001A400A60026801F500011A404A
:1002400002600A6813400B60012001F039FB054B86
:1002500001221A6008BD00BF00001050000050507D
:10026000FEEFFFFF1C0C0020002A02F1FF3307DD28
:10027000043851F8042B40F8042F013B5A1CF8D1E4
:10028000704700BF104B30B5104D19464FF0010EAE
:1002900041F0010105F1080C81F800E06D686A1E6B
:1002A00085B16146013A51F8044B1C60501C03F1C2
:1002B0000403F7D10CEB850529680B460029E7D12B
:1002C000012030BD6546F7E70000185018A1001066
:1002D0001649174B1748FB2201E011F8012F43F88C
:1002E000042B8342F9D11449144B1548FC2201E038
:1002F00011F8012F43F8042B8342F9D11149124B15
:100300001248FB2201E011F8012F43F8042B83422D
:10031000F9D10F490F4B10481A2201E011F8012FB3
:1003200043F8042B8342F9D1012070474C9D001003
:1003300000801050008410504C9E001000805050DF
:10034000008450504C9F00100080905000849050CA
:100350004CA000100080D0502883D050F0B40E483C
:100360000E4E0F4D0F4C104F104940F20E4213230A
:100370004FF0000CC7F800C031607260B3602960B4
:100380006A60AB600160426083602160012062604E
:10039000A360F0BC704700BF0000905000001050F8
:1003A000000050500000D050001000500800100015
:1003B000F74AF848F8492DE9F04F4FF400634FF43D
:1003C0000056DFF8E4E3C2F810E048F620354FF4B9
:1003D000FC3CC2F890E0F14FC2F81033C2F8106450
:1003E000C2F890551B25C2F810CAC2F81076C2F8A0
:1003F00090564FF00115C2F810574FF40065C0F841
:1004000010E0C0F890E0C0F810534FF43265C0F827
:100410001064C0F890551B25C0F810CAC0F81076BB
:10042000C0F890564FF40065C1F810E0C1F890E0B4
:10043000C1F810534FF43265D94BC1F81064C1F8BC
:1004400090551B25C1F810CAC1F81076C1F8905616
:100450004FF40065C3F810E0C3F890E0C3F8105300
:100460004FF43265C3F81064C3F890551B25C3F8E8
:1004700010CAC3F81076C3F890564FF48055C3F8ED
:1004800090574FF40065C2F814E0C2F894E0C2F847
:100490001464C2F814554EF62035C2F894554FF442
:1004A000FC75C2F814CAC2F814561B25C2F894563B
:1004B0004FF0FF35C2F814574FF40065C0F814E050
:1004C000C0F894E0C0F81464C0F814554FF43265D5
:1004D000C0F894554FF4FC75C0F814CAC0F814560F
:1004E0001B25C0F894564FF0FF35C0F814574FF451
:1004F0000065C1F814E0C1F894E0C1F81464C1F8D3
:1005000014554FF43265C1F894554FF4FC75C1F899
:1005100014CAC1F814561B25C1F894564FF0FF3584
:10052000C1F814574FF40065C3F814E0C3F894E021
:10053000C3F81464C3F814554FF43265C3F89455E6
:100540004FF4FC75C3F814CAC3F814561B25C3F83E
:1005500094564FF48255C3F894574FF0FF35C3F8C3
:1005600014570225C2F818E0C2F898E0C2F8985172
:10057000C2F81852C2F898524FF40065C2F81853E6
:100580004EF6A0250824C2F81864864FC2F8985584
:100590004FF48455C2F818CAC2F81876C2F89846C3
:1005A000C2F898574FF0FF35C2F818570225C0F827
:1005B00018E0C0F898E0C0F89851C0F81852C0F898
:1005C00098524FF40065C0F818534FF42A65C0F8EC
:1005D0001864C0F898554FF0FF35C0F818CAC0F835
:1005E0001876C0F89846C0F818570225C1F818E0E8
:1005F000C1F898E0C1F89851C1F81852C1F8985262
:100600004FF40065C1F818534FF42A65C1F8186417
:10061000C1F898554FF0FF35C1F818CAC1F81876DF
:10062000C1F89846C1F818570225C3F818E0C3F876
:1006300098E0C3F89851C3F81852C3F898524FF491
:100640000065C3F818534FF42A65C3F81864C3F85B
:1006500098554FF0FF35C3F818CAC3F81876C3F899
:100660009846C3F818574FF40065D461C2F89C400F
:10067000C2F81C64C2F81C554EF62015DFF82C8118
:10068000C2F89C554FF0FF35C2F81CCAC2F81C8650
:10069000C2F89C46C2F81C574FF400654FF412692B
:1006A000C461C0F89C40C0F81C64C0F81C554FF0F1
:1006B000FF35C0F89C95C0F81CCAC0F81C86C0F86D
:1006C0009C46C0F81C574FF40065CC61C1F89C40B3
:1006D000C1F81C64C1F81C554FF0FF35C1F89C955A
:1006E000C1F81CCAC1F81C86C1F89C46C1F81C5749
:1006F0004FF40065DC61C3F89C40C3F81C64C3F888
:100700001C554FF0FF35C3F89C95C3F81CCAC3F8BD
:100710001C86C3F89C46C3F81C574FF4006514624E
:1007200007F11157C2F8A040C2F820534EF6201529
:10073000C2F8206407F51157C2F8A0554FF0FF35F5
:10074000C2F820CAC2F82076C2F8A046C2F82057E4
:100750004FF400650462C0F8A040C0F820534FF485
:100760008455C0F82064C0F8A095C0F820CAC0F82D
:100770002076C0F8A046C0F8A0574FF0FF35C0F86B
:1007800020574FF400650C62C1F8A04010E000BF94
:10079000000010500000505000009050180A20082F
:1007A0000000D050F80300021D000100F8250024CD
:1007B000C1F820534FF0FF35C1F82064C1F8A0956F
:1007C000C1F820CAC1F82076C1F8A046C1F8205768
:1007D0004FF400651C62C3F8A040C3F820534FF0EB
:1007E000FF35C3F82064C3F8A095C3F820CAC3F846
:1007F0002076C3F8A046C3F820574FF40065546232
:10080000C2F8A440C2F82464C2F824554EF620155C
:10081000C2F8A4554FF0FF35C2F824CAC2F82486A6
:10082000C2F8A446C2F824574FF400654462C0F8E9
:10083000A440C0F82464C0F824554FF0FF35C0F838
:10084000A495C0F824CAC0F82486C0F8A446C0F80D
:1008500024574FF400654C62C1F8A440C1F82464E9
:10086000C1F824554FF0FF35C1F8A495C1F824CA4A
:10087000C1F82486C1F8A446C1F824574FF4006596
:100880005C62C3F8A440C3F82464C3F824554FF055
:10089000FF35C3F8A495C3F824CAC3F82486C3F867
:1008A000A446C3F824574FF400654FF0010B94623F
:1008B000EC4FC2F8A840C2F828534EF62035C2F8D3
:1008C000A8B34FF4807AC2F82864C2F8A8B4C2F87A
:1008D000A855C2F8287A4FF48055E34FC2F828761D
:1008E000C2F828A1C2F8A8574FF0FF35C2F8285720
:1008F0004FF400658462DB4FC0F8A840C0F828536D
:100900004FF43265C0F8A8B3C0F82864C0F8A8B4A2
:10091000C0F8A855C0F8287A4FF0FF35D24FC0F87C
:100920002876C0F828A1C0F828574FF400658C62DB
:10093000CC4FC1F8A840C1F828534FF43265C1F834
:10094000A8B3C1F82864C1F8A8B4C1F8A855C1F883
:10095000287A4FF0FF35C44FC1F82876C1F828A196
:10096000C1F828574FF400659C62BE4FC3F8A840F9
:10097000C3F828534FF43265C3F8A8B3C3F828640A
:10098000C3F8A8B4C3F8A855C3F8287A4FF0FF35C8
:10099000B54FC3F82876C3F828A1C3F828574FF4F9
:1009A0000065D462C2F8AC40C2F8ACB3C2F82C64A3
:1009B000C2F82C554EF62015C2F8AC55AB4FAC4DD5
:1009C000C2F82C7AC2F82C564FF0FF35C2F82CA191
:1009D00083B0C2F82C574FF40065C462C0F8AC4035
:1009E000C0F8ACB3C0F82C64C0F82C55A04DC0F8CA
:1009F000AC95C0F82C7A0195C0F82C564FF0FF3515
:100A0000C0F82CA1C0F82C574FF40065CC62C1F897
:100A1000AC40C1F8ACB3C1F82C64C1F82C55019DB1
:100A2000C1F8AC954FF4845EC1F82C7AC1F82C560D
:100A30004FF0FF35C1F82CA1C1F8ACE7C1F82C5735
:100A40004FF40065DC62C3F8AC40C3F8ACB3C3F844
:100A50002C64C3F82C55864DC3F8AC95C3F82C7A9A
:100A6000C3F82C564FF0FF35C3F82CA1C3F82C5710
:100A70004FF400651463C2F8B040C2F830534EF62C
:100A80002015C2F83064C2F8B0554FF0FF35C2F8F7
:100A900030CAC2F83086C2F8B046C2F830574FF4B8
:100AA00000650463C0F8B040C0F830534FF0FF3524
:100AB000C0F83064C0F8B095C0F830CAC0F83086CD
:100AC000C0F8B046C0F830574FF400650C63C1F869
:100AD000B040C1F830534FF0FF35C1F83064C1F871
:100AE000B095C1F830CAC1F83086C1F8B046C1F837
:100AF00030574FF400651C63C3F8B040C3F830535F
:100B00004FF0FF35C3F83064C3F8B095C3F830CA6E
:100B1000C3F83086C3F8B046C3F830574FF40065C9
:100B20005463C2F8B440C2F83464C2F834554EF687
:100B30002015C2F8B4554FF0FF374E4DC2F834CAF5
:100B4000C2F83456C2F8B446C2F834774FF400679E
:100B50004463C0F8B440C0F83464C0F834754FF052
:100B6000FF37C0F8B495C0F834CAC0F83456C0F89E
:100B7000B446C0F834774FF400674C63C1F8B44012
:100B8000C1F83464C1F834754FF0FF37C1F8B4953B
:100B9000C1F834CAC1F83456C1F8B446C1F8347744
:100BA0004FF400675C63C3F8B440C3F83464C3F81F
:100BB0003475C3F8B495C3F834CAC3F834564FF04B
:100BC000FF35C3F8B446C3F8B4E7C3F834574EF65C
:100BD00020159463C2F8B840C2F83873C2F838647C
:100BE000C2F8B8554FF0FF35C2F838CAC2F8388697
:100BF000C2F8B846C2F838574FF0FF358463C0F8E2
:100C0000B840C0F83873C0F83864C0F8B895C0F878
:100C100038CAC0F83886C0F8B846C0F838574FF020
:100C2000FF358C63C1F8B840C1F83873C1F8386437
:100C3000C1F8B895C1F838CAC1F83886C1F8B846C5
:100C4000C1F838574FF0FF359C63C3F8B840C3F87C
:100C50003873C3F83864C3F8B895C3F838CAC3F812
:100C6000388609E010F80100782C802801F801008E
:100C7000F830002D78338031C3F8B846C3F83857C0
:100C8000D4634EF62035C2F8BC40C2F8BCB3C2F8FB
:100C90003C64C2F8BCB4C2F83C75EE4FC2F8BC5517
:100CA000C2F83C7AEC4DC2F83C564FF0FF37C2F820
:100CB0003CA1C2F83C774FF40067C4634FF4326E36
:100CC000C0F8BC40C0F8BCB3C0F83C64C0F8BCB4C9
:100CD000C0F83C75DF4FC0F8BCE5C0F83C7A4FF473
:100CE000805E4FF0FF37C0F83C56C0F83CA1C0F81A
:100CF000BCE7C0F83C774FF40067CC634FF4326E2A
:100D0000C1F8BC40C1F8BCB3C1F83C64C1F8BCB484
:100D1000C1F83C75CF4FC1F8BCE5C1F83C7A4FF043
:100D2000FF37C1F83C56C1F83CA1C1F83C774FF4FD
:100D30000067DC63C3F8BC40C3F8BCB3C3F83C64D1
:100D4000C3F8BCB4C3F83C75C24FC3F8BCE5C3F8E4
:100D50003C7AC3F83C564FF0FF35C3F83CA1C3F8CA
:100D60003C574FF400651464C2F8C040C2F84053C9
:100D70004EF62015C2F8C0B30F3FC2F84064C2F867
:100D8000C055B64DC2F8407AC2F840564FF4865569
:100D9000C2F840A1C2F8C0574FF0FF35C2F8405723
:100DA0004FF400650464C0F8C040C0F84053AB4D38
:100DB000C0F8C0B3C0F84064C0F8C095C0F8407A2D
:100DC000C0F840564FF0FF35C0F840A1C0F840577A
:100DD0004FF400650C64C1F8C040C1F840539F4D0A
:100DE000C1F8C0B3C1F84064C1F8C095C1F8407AF9
:100DF0000195C1F840564FF0FF35C1F840A1C1F848
:100E000040574FF400651C64C3F8C040C3F840531A
:100E1000019DC3F8C0B3C3F84064C3F8C095C3F8DC
:100E2000407AC3F840564FF0FF35C3F840A1C3F8ED
:100E300040574FF400655464C2F8C440C2F844649B
:100E4000C2F844554EF62015C2F8C4554FF0FF3590
:100E5000C2F844CAC2F84486C2F8C446C2F844572D
:100E60004FF400654464C0F8C440C0F84464C0F85E
:100E700044554FF0FF35C0F8C495C0F844CAC0F8D7
:100E80004486C0F8C446C0F844574FF400654C642B
:100E9000C1F8C440C1F84464C1F844554FF0FF356F
:100EA000C1F8C495C1F844CAC1F84486C1F8C44623
:100EB000C1F844574FF400655C64C3F8C440C3F8FC
:100EC0004464C3F844554FF0FF35C3F8C495C3F8E4
:100ED00044CAC3F84486C3F8C446C3F844574FF421
:100EE00000659464C2F8C840C2F848534EF6201515
:100EF000C2F848644FF0FF37C2F8C855584DC2F8E1
:100F000048CAC2F84856C2F8C846C2F848774FF4F3
:100F1000006784644FF4865EC0F8C840C0F8487328
:100F20004FF0FF37C0F84864C0F8C895C0F848CA09
:100F3000C0F84856C0F8C846C0F8C8E7C0F84877B7
:100F40004FF400678C64C1F8C840C1F848734FF093
:100F5000FF37C1F84864C1F8C895C1F848CAC1F85C
:100F60004856C1F8C846C1F848774FF400679C64FA
:100F7000C3F8C840C3F84873C3F84864C3F8C895B9
:100F8000C3F848CAC3F848564FF0FF35C3F8C846FF
:100F9000C3F848574EF62015D464C2F8CC40C2F8C6
:100FA0004C64C2F84C75C2F8CC554FF0FF35C2F80E
:100FB0004CCAC2F84C86C2F8CC46C2F84C574FF027
:100FC000FF35C464C0F8CC40C0F84C64C0F84C7520
:100FD000C0F8CC95C0F84CCAC0F84C86C0F8CC46D6
:100FE000C0F84C574FF0FF35CC64C1F8CC40C1F885
:100FF0004C64C1F84C75C1F8CC95C1F84CCAC1F825
:101000004C86C1F8CC46C1F84C574FF0FF35DC6434
:10101000C3F8CC40C3F84C64C3F84C75C3F8CC9506
:10102000C3F84CCAC3F84C86C3F8CC46C3F84C5737
:1010300014654EF62035C2F8D040C2F85073054F03
:10104000C2F8D0B3C2F85064C2F8D0B4C2F8D055D8
:1010500008E000BF10F80100B837C033383C403812
:10106000B83EC03CC2F8507ACD4DC2F850564FF051
:10107000FF37C2F850A1C2F850774FF400670465FB
:101080004FF4326EC0F8D040C0F85073C54FC0F86E
:10109000D0B3C0F85064C0F8D0B4C0F8D0E5C0F800
:1010A000507A4FF0FF37C0F85056C0F850A1C0F842
:1010B00050774FF400670C65C1F8D040C1F8507309
:1010C000B84FC1F8D0B3C1F85064C1F8D0B4C1F87A
:1010D000D0E5C1F8507A4FF4805E4FF0FF37C1F889
:1010E0005056C1F850A1C1F8D0E7C1F850774FF47D
:1010F00000671C654FF4326EC3F8D040C3F85073DC
:10110000A84FC3F8D0B3C3F85064C3F8D0B4C3F841
:10111000D0E5C3F8507AC3F850564FF0FF35C3F806
:1011200050A1C3F850574FF400655465C2F8D4403D
:10113000C2F8D4B3C2F85464C2F854554EF6201520
:10114000C2F8D4550F3F984DC2F8547AC2F854569D
:101150004FF0FF35C2F854A1C2F854574FF4006560
:101160004465C0F8D440C0F8D4B3C0F85464C0F8A3
:1011700054558D4DC0F8D495C0F8547A0195C0F8F7
:1011800054564FF0FF35C0F854A1C0F854574FF4EF
:1011900000654C65C1F8D440C1F8D4B3C1F85464BB
:1011A000C1F85455019DC1F8D495C1F8547AC1F8DD
:1011B00054564FF48655C1F854A1C1F8D4574FF096
:1011C000FF35C1F854574FF400655C65C3F8D4404F
:1011D000C3F8D4B3C3F85464C3F85455724DC3F87C
:1011E000D495C3F8547AC3F854564FF0FF35C3F87A
:1011F00054A1C3F854574FF400659465C2F8D84021
:10120000C2F858534EF62015C2F85864C2F8D855A3
:101210004FF0FF35C2F858CAC2F85886C2F8D8460F
:10122000C2F858574FF400658465C0F8D840C0F83C
:1012300058534FF0FF35C0F85864C0F8D895C0F83F
:1012400058CAC0F85886C0F8D846C0F858574FF466
:1012500000658C65C1F8D840C1F858534FF0FF3590
:10126000C1F85864C1F8D895C1F858CAC1F8588671
:10127000C1F8D846C1F858574FF400659C65C3F8CB
:10128000D840C3F858534FF0FF35C3F85864C3F83B
:10129000D895C3F858CAC3F85886C3F8D846C3F8D7
:1012A00058574FF48065D465C2F8DC40C2F85C53EF
:1012B0004FF40065C2F8DCB3C2F85C64C2F85C5558
:1012C0003A4DC2F8DC554FF49045C2F85C5A4FF0E5
:1012D000FF37374DC2F85C56C2F85CA1C2F85C77A4
:1012E0004FF48062C465C0F8DC40C0F85C234FF462
:1012F0000062C0F8DCB32F4FC0F85C64C0F85C2516
:101300004FF49042C0F8DC75C0F85C2AC0F85C5617
:101310002A464FF0FF35C0F85CA1C0F85C574FF487
:101320008060CC654FF49045C1F8DC40C1F85C03A7
:101330004FF40060C1F8DCB3C1F85C64C1F85C052F
:10134000C1F8DC75C1F85C5A4FF0FF35C1F85C2676
:10135000C1F85CA1C1F85C574FF48061DC65C3F84B
:10136000DC40C3F85C134FF40061C3F8DCB3C3F88E
:101370005C64C3F85C154FF49041C3F8DC755846C3
:10138000C3F85C1AC3F85C264FF48652C3F85CA11C
:10139000C3F8DC27C3F85C5703B0BDE8F08F00BF8B
:1013A000F842003F10F801007847804320E901002F
:1013B0004848004820090100F8B50A490A4C0B4A80
:1013C0000B4E0C480C4B0D4D002737602560036019
:1013D0000B600120136000F053FA094B23600120D9
:1013E000F8BD00BF00009050000010500000D05029
:1013F0001C0C0020000050500908100008081000C4
:10140000090010004B4910B5844600F1200300F597
:10141000A464091AC85843F8200CCA18203350682D
:1014200043F83C0C906843F8380CD06843F8340C0F
:10143000106943F8300C506943F82C0C906943F85C
:10144000280CD26943F8242CA342E3D13A4B3B4900
:10145000D3F80025CCF80025D3F80425CCF80425D2
:10146000D3F80825CCF80825D3F80C35CCF80C3582
:101470000CF5236E0CF5A663A1EB0C01C85843F8DC
:10148000200CCA182033506843F83C0C906843F88D
:10149000380CD06843F8340C146943F8304C546964
:1014A00043F82C4C946943F8284CD26943F8242C17
:1014B0007345E3D1224B2349D3F80025CCF8102AF9
:1014C000D3F80425CCF8142AD3F80825CCF8182A28
:1014D000D3F80C35CCF81C3A0CF54C640CF52463AD
:1014E000A1EB0C01C85843F8200CCA1820335068EF
:1014F00043F83C0C906843F8380CD06843F8340C3F
:10150000106943F8300C506943F82C0C906943F88B
:10151000280CD26943F8242CA342E3D10A4BD3F818
:101520008022CCF8A02CD3F88432CCF8A43C012043
:1015300010BD00BFE00F405000104050D08A405016
:1015400000904050C0054150001041500C4B0F22FC
:1015500010B5DA6000245A601A604FF080429C6037
:10156000DC60936923F470330343194391611920BC
:1015700000F0AAFC0349652000F05CFC012010BDCE
:10158000005800402102001008B5192000F07AFC34
:10159000064B0F22DA609968002241F00F01996032
:1015A00001201A605A60DA6008BD00BF0058004090
:1015B00070B52348234C01F057F8042000F024FDB7
:1015C00000F0FAFA204801F0D7FF204800F0F8FBBD
:1015D0004FF480310020FFF7B9FF1D4801F0CCFF28
:1015E000FEF7BCFEFEF74EFEFEF772FEFEF7E0FED3
:1015F000184919484FF44472FEF736FEFFF7DCFE37
:10160000236823B901F04AF82368002BFAD0134865
:10161000124D134EFFF7F6FE124801F0ADFF002405
:10162000214655F8042B3046013401F043FF0A2CC3
:10163000F6D10D4801F0A0FFFFF7A6FF002070BD16
:1016400000A002401C0C002064EA021080841E00EE
:1016500070EA0210CCEA021000004050200C00207A
:10166000A8EA021098EA0210BCEA021008B5034684
:10167000014801F01FFFFEE70CF70210022000F006
:1016800021BF00BF002000F01DBF00BF2DE9F041C9
:10169000002096B000F018FC012000F015FC40205E
:1016A00000F012FC2E4B022218684FF4E13101F0D9
:1016B000E5F8051E46DB2B4AD2F8C03043F00F0395
:1016C000C2F8C03000F01CF900283FD100F0B8F893
:1016D000054600283FD1244B244C4322DA600FCC2E
:1016E0000DF1280CACE80F0094E8030004F10803A6
:1016F0008CE8030093E8070001AE86E80700314656
:101700002A460AA800F030F904F1140EBEE80F00D2
:101710000DF1400CACE80F009EE8030004F12C082A
:101720008CE8030098E8070004AE383486E8070028
:1017300094E8070007AF87E807003A46314610A84B
:1017400000F04EF9284616B0BDE8F0810849094876
:10175000B922FFF78BFF06490648BE22FFF786FF36
:1017600000000020008000400044004080F702108C
:1017700028F7021078F7021000BF70474FF0FF30D3
:10178000704700BF4FF0FF30704700BF4FF0FF3091
:10179000704700BF4FF0FF30704700BFF8B5E0B9A9
:1017A000002A1746054615DD0F4E0C4602E00135AE
:1017B000AF4210D0304601F0B5F8C1B221703046CA
:1017C00001F0B2F8224614F8013B0D2BEFD10A23A9
:1017D0001370681CF8BD3846F8BD01F091FA092372
:1017E00003604FF0FF30F8BD00200440F8B5431E01
:1017F000012B1CD8002A174617DD551E0F4E4C1E14
:101800000D4404E0304601F08FF8AC420DD014F8DE
:10181000011F0A29F6D10D21304601F085F8217803
:10182000304601F081F8AC42F1D13846F8BD01F004
:1018300067FA092303604FF0FF30F8BD0020044031
:10184000F8B50D4B1F68A7B100250C4C2E46D4E906
:10185000000100F005FE204600F0E8FC01350028FC
:1018600018BF6FF00706AF4204F10C04EFD1304609
:10187000F8BD3E463046F8BDECF70210D4F7021032
:101880000B4B1B68834210B504460BD9094B04EB84
:10189000440403EB840253F824005168BDE810406F
:1018A00000F0F6BD044905482E22FFF7DFFEEDE704
:1018B000ECF70210D4F702100CF8021048F80210EE
:1018C0000B4B1B68834210B504460BD9094B04EB44
:1018D000440403EB840253F824005168BDE810402F
:1018E00000F0BEBD044905483922FFF7BFFEEDE711
:1018F000ECF70210D4F702100CF8021048F80210AE
:10190000F8B5164B1F68FFB10024154D2646284632
:1019100000F08CFC0134002818BF6FF00706BC42B1
:1019200005F10C05F3D10F4C206840B1002F14BF16
:101930003A460122002101F05FFD3046F8BD3846ED
:1019400001F008FA2060F1E7064C26680EB13E4629
:10195000F3E7304601F0FEF92060EEE7F0F7021001
:10196000F4F70210C818002030B448B31346164AE2
:10197000164D0C4601681160154A41691160154AFF
:1019800001691160043007C885E8070074B194E864
:101990000700114C84E8070063B193E807000F4B80
:1019A00083E807000024204630BC70470A4A1460D0
:1019B000002BF2D1094A1C462046136030BC704708
:1019C0004FF0FF34EFE700BFF0180020D8180020D8
:1019D000F4180020F8180020E4180020CC1800208B
:1019E00010B4B9B1B0B1134607C90C4C84E8070074
:1019F0004BB193E807000A4B83E807000024204618
:101A00005DF8044B7047064A1C46204613605DF89B
:101A1000044B70474FF0FF34F1E700BF0819002076
:101A2000FC180020474885464748804780B9474909
:101A3000474A484B9B1A03DD043BC858D050FBDC97
:101A40004549464A00209142BCBF41F8040BFAE7E1
:101A5000434880474348804743488047FFF7FEFF9D
:101A6000FEE7FEE7FEE7FEE7FEE7FEE7FEE7FEE74E
:101A7000FEE7FEE7FEE7FEE7FEE7FEE7FEE7FEE73E
:101A8000FEE7FEE7FEE7FEE7FEE7FEE7FEE7FEE72E
:101A9000FEE7FEE7FEE7FEE7FEE7FEE7FEE7FEE71E
:101AA000FEE7FEE7FEE7FEE7FEE7FEE7FEE7FEE70E
:101AB000FEE7FEE7FEE7FEE7FEE7FEE7FEE7FEE7FE
:101AC000FEE7FEE7FEE7FEE7FEE7FEE7FEE7FEE7EE
:101AD000FEE7FEE7FEE7FEE7FEE7FEE7FEE7FEE7DE
:101AE000FEE7FEE7FEE7FEE7FEE7FEE7FEE7FEE7CE
:101AF000FEE7FEE7FEE7FEE7FEE7FEE7FEE7FEE7BE
:101B0000FEE7FEE7FEE7FEE7FEE7FEE7FEE7FEE7AD
:101B1000FEE7FEE7FEE7FEE7FEE7FEE7FEE7FEE79D
:101B2000FEE7FEE7FEE7FEE7FEE7FEE7FEE7FEE78D
:101B3000FEE7FEE7FEE7FEE7FEE7FEE7FEE7FEE77D
:101B4000FEE7FEE700000220211C001098FD0210B5
:101B500000000020240A0020000C0020302000207B
:101B6000291C00100D2D0010B11500100B4A08B5EE
:101B70000346106828B10A4903448B4207D8136012
:101B800008BD08480649106003448B42F7D901F0AC
:101B9000B7F80C2303604FF0FF3008BD1419002084
:101BA00000F00120382000206FF01000704700BFC7
:101BB0006FF01000704700BF4FF080439A6802F446
:101BC0006062B2F5206F20D010D8CAB1104B47F236
:101BD0003051B2F5C06F08BF0B464FF080420D493F
:101BE0009268C2F38212D3400B607047B2F5406F27
:101BF00008D0074B0849B2F5606F08BF0B46ECE709
:101C0000064BEAE74FF40043E7E74FF4E103E4E76C
:101C100000E1F50530200020C068780400879303B8
:101C200000207047704700BF10B50B4C0B4BA360F2
:101C30000B4800F019FDD4F8883043F47003C4F861
:101C40008830BFF34F8FBFF36F8FFFF7B5FFFFF7FC
:101C5000E9FFFFF71BFD10BD00ED00E000000010E4
:101C600000A0024038B54FF0E02318499C691A697A
:101C700022F480320A601A69D20723D46FF07F44BD
:101C800005225C614FF080759C611A61104B114A0E
:101C900019680023A0FB010107F0D6FE0E4BB0FB34
:101CA000F5F205FB120084421A6007D81A68013267
:101CB0001A602C44094B201A186038BD074B201AB3
:101CC000186038BD5D690135E0E700BF1C190020D0
:101CD0003020002040420F00040000202019002086
:101CE00010B50C4C0C4B22681960002A0FDC08B9A7
:101CF000002010BDFFF7B6FF2368002BF8DD4FF082
:101D0000E0220020136943F00203136110BD6FF05D
:101D1000050010BD0400002018190020F8B5174C6C
:101D20002368002B1EDB26682EBB154B4FF0E025E9
:101D30001B68AA699A421ED8124F3B685BB16FF0CC
:101D40000F009847104B3E601A682A614FF0FF332E
:101D500023600020F8BD0C4A4FF0FF3312682A615F
:101D60002360F6E7074C2368002BF2D00020984749
:101D700000202060F8BD6FF00500F8BD04000020D1
:101D800020190020181900201C19002010B5094C3A
:101D9000236823B16FF00F00984700232360064AA1
:101DA000064B10684FF0E0214FF0FF3208611A60D7
:101DB00010BD00BF181900201C19002004000020CD
:101DC00038B5184C2268002A29DC00B938BDFFF765
:101DD00049FF4FF0E02202E01369DB031BD42368C4
:101DE000002BF9DC104B1A684FF0E0218B6993420D
:101DF000FCD80E4D2B6823B16FF00F0098470023DD
:101E00002B600B4B4FF0E022196811614FF0FF334C
:101E10000020236038BD2368013B2360DFE76FF0BB
:101E2000050038BD040000202019002018190020EA
:101E30001C190020F8B50F4E0F4BB2689A420446A9
:101E40000D4600F1100707D018460C494FF4F07208
:101E500001F038FA0346B060002C43F8275008DB45
:101E6000074B6209012004F01F0400FA04F443F850
:101E70002240F8BD00ED00E0001A00200000001034
:101E800000E100E03F2809D90E4A4038D168C0B2CD
:101E9000012303FA00F00843D06070471F284FF079
:101EA000804208D92038916CC0B2012303FA00F0B7
:101EB000084390647047516A012303FA00F0084315
:101EC00050627047000008403F280AD91049403846
:101ED000CB68C0B2012202FA00F023EA0000C86019
:101EE00070471F284FF0804109D920388B6CC0B251
:101EF000012202FA00F023EA0000886470474B6A6E
:101F0000012202FA00F023EA00004862704700BF95
:101F10000000084010B507280AD8DFE800F00C09D7
:101F2000092333475B04BDE81040364800F07EB912
:101F30006FF0020010BD4FF080440021A36843F40D
:101F40008023A3604FF47A70FFF7CAFE03E0FFF727
:101F5000E5FE063052D1A3685901F8D5FFF716FF08
:101F6000002010BD00214FF47A70FFF7B9FE4FF04A
:101F7000804403E0FFF7D2FE06303FD1A3689A0009
:101F8000ECD4F7E74FF080440021A36843F400232A
:101F9000A3604FF47A70FFF7A3FE03E0FFF7BEFEE5
:101FA00006302BD1A3681B01F8D5D7E74FF080444A
:101FB0000021A36843F48013A3604FF47A70FFF705
:101FC0008FFE03E0FFF7AAFE063017D1A368D80002
:101FD000C4D4F7E74FF080440021A36843F40033F2
:101FE000A3604FF47A70FFF77BFE03E0FFF796FEE5
:101FF000063003D1A3689B01B0D4F7E76FF0090066
:1020000010BD00BF58F8021038B54FF080439D68EE
:10201000072824D8DFE800F0262323333C4B5A045A
:102020005D4800F003F9C8B94FF08042936843F46B
:102030006063936000214FF47A70FFF751FE4FF018
:10204000804403E0FFF76AFE06304ED1A3689B048C
:10205000F8D5FFF79BFEFFF7AFFD002038BD6FF00E
:10206000020038BD4FF08044A16811F4802146D0B1
:102070004FF08042936823F460639360DAE74FF097
:102080008042936823F4606343F4C0639360D1E7B4
:102090004FF08044A16811F4002169D04FF08042D4
:1020A000936823F4606343F400639360C2E74FF0E6
:1020B0008044A16811F4801147D04FF080429368AA
:1020C00023F4606343F420639360B3E74FF08044EC
:1020D000A16811F4003125D04FF08042936823F4B9
:1020E000606343F440639360A4E7A36805F460650C
:1020F00023F460632B43A3606FF0090038BDA3682D
:1021000043F48023A3604FF47A70FFF7E9FD03E006
:10211000FFF704FE0630EFD1A3685801F8D5FFF7AA
:1021200035FEA5E7A36843F40033A3604FF47A704B
:10213000FFF7D6FD03E0FFF7F1FD0630DCD1A36821
:102140009A01F8D5FFF722FEC6E7A36843F480138F
:10215000A3604FF47A70FFF7C3FD03E0FFF7DEFDE5
:102160000630C9D1A368D900F8D5FFF70FFEA4E760
:10217000A36843F40023A3604FF47A70FFF7B0FD27
:1021800003E0FFF7CBFD0630B6D1A3681B01F8D5FD
:10219000FFF7FCFD82E700BF58F802103F280AD97C
:1021A0004038114AC0B2012303FA00F090609368EE
:1021B0001842FCD170471F280BD92038C0B2012328
:1021C0004FF0804203FA00F05064536C1842FCD187
:1021D000704701234FF0804203FA00F050605368CB
:1021E0001842FCD1704700BF00000840C10710B57D
:1021F000044608D4A2070BD463070ED42046BDE8DA
:10220000104000F021BD0020FFF75EFEA207F3D5CD
:102210000120FFF759FE6307F0D54020FFF754FE79
:102220002046BDE8104000F00FBD00BFF8B5894B57
:1022300005689D42044638D003F580539D4212D074
:1022400003F5EE2303F580639D423CD003F5007354
:102250009D423AD00020FFF7C9FF00F04BFD012856
:1022600008D10020F8BD0220FFF7C0FF00F042FDBA
:102270000128F6D06268A17A284600F047F90028C4
:10228000F0D1754B22689A4211D06268217A2846B3
:1022900000F05CF90028E5D1637A042B00F2D680C7
:1022A000DFE803F0554D3D351E000120D3E7237ACA
:1022B000012B00F0BD80022B54D0002B00F0A08039
:1022C0006FF01000F8BD0420C5E70820FFF78EFF6F
:1022D00000F010FD0128C4D0A37A002BD1D1EFE784
:1022E0002A6E636822EA03022A666A6E1A436A66E5
:1022F000D5F8B8201343C5F8B830237A002BB0D0F6
:102300006268E17A2846BDE8F84000F05DB92A6EBF
:1023100063681A432A666A6E22EA0302E7E72B6EB5
:10232000626823EA02032B666B6E13436B66D5F873
:10233000B83023EA0203C5F8B830237ADEE72B6E03
:10234000626813432B666B6E23EA0203EEE72A6E84
:10235000616822EA01022A666B6E23EA01036B665A
:10236000237ACBE762683D484FEA420C1101066AC6
:102370000CF0020C01F0200141EA0C013143016232
:102380008168C2F3400242EA0C020A438260627A28
:10239000042A95D8DFE802F0271C031C03006268BA
:1023A0002E48D100066A01F0100102F0010C41EA4A
:1023B0000C0126EA010101629100520101F00401C1
:1023C00002F040020A43016A21EA0202026295E732
:1023D00022486268076AD10002F0010601F010018C
:1023E0003E433143E7E761681C488A004901066AB9
:1023F00002F0040201F040010A43324302627DE729
:10240000626816484FEA420C1101066A0CF0020C91
:1024100001F0200141EA0C0126EA01010162816814
:10242000C2F3400242EA0C0221EA02028260AEE7F5
:1024300062680A484FEA420C1101066A0CF0020C6D
:1024400001F0200141EA0C013143E7E76FF002009F
:10245000F8BD00BF0080004000060840006C00404E
:10246000094A904201D000F049B8084810B4046A03
:10247000CA0001F00101214302F0100319435DF885
:10248000044B0162704700BF00060840006C00402A
:102490000A4A904201D000F033B810B4084C0B4601
:1024A000C900206A01F0100203F00101114320EA83
:1024B000010121625DF8044B704700BF000608402F
:1024C000006C004000F0D2BB034A904201D000F003
:1024D00019B8024AD1617047000608400068004000
:1024E000034B984201D000F00FB8024BD8697047F7
:1024F000000608400068004000F0FCBBC161704766
:102500000162704781647047006C704770B5054682
:102510000C461646FFF7F0FF012814D05CB1012CE1
:1025200002D06FF0020070BDD5F8C0203243002009
:10253000C5F8C02070BDD5F8C02022EA06022046AA
:10254000C5F8C02070BD002070BD00BF70B5044646
:102550000E461546FFF7D0FF01280AD0236B2B4308
:1025600023636560052E2CD8DFE806F00C14161DD9
:102570002405002070BDC4F888500020A567E566DA
:10258000A56070BD6561656000202567E567C4F8DA
:10259000885070BD2561F6E7C4F888500020E567D3
:1025A0002567A56070BDC4F888500020E567E56622
:1025B000A56070BDC4F888500020A5672567A56098
:1025C00070BD6FF0020070BD70B504460D46164632
:1025D000FFF792FF012810D0032D37D8DFE805F070
:1025E0001B02290FD4F8B0303343C4F8B030D4F80C
:1025F000B42022EA0606C4F8B460002070BDD4F806
:10260000B0303343C4F8B030D4F8B4201643C4F823
:10261000B460002070BDD4F8B03023EA0603C4F8DB
:10262000B030D4F8B42022EA0606C4F8B460002022
:1026300070BDD4F8B03023EA0603C4F8B030D4F843
:10264000B4201643C4F8B460002070BDD4F8B03094
:1026500023EA0603C4F8B030D4F8B43023EA0606FF
:10266000C4F8B460C9E700BF00F000B8D0F800318A
:10267000012223F00103C0F80031C0F80027D0F890
:102680000031DA03FBD5D0F8003143F00103C0F884
:102690000031D0F80031DB03FBD57047074B084908
:1026A0004FF0FF325A60DA605A61DA611A630B69DF
:1026B00023F004030B6130BF704700BF0068004087
:1026C00000ED00E008B5174B984210D0164B984229
:1026D00015D0164B98421AD0154B98421FD1442062
:1026E000FFF75CFD4420FFF7CDFB002008BD0B2069
:1026F000FFF754FD0920FFF7C5FB002008BD0C20A3
:10270000FFF74CFD0A20FFF7BDFB002008BD1C2091
:10271000FFF744FD2120FFF7B5FB002008BD6FF057
:10272000020008BD00200440003004400040044086
:1027300000140840214B10B504469C42084629D09D
:1027400003F580539C4225D003F580539C4221D051
:1027500003F575339C4222D10523042A636121D1FC
:102760002368B0F5166F43F4001323608CBF002379
:10277000012363614FF480310246204600F066F980
:10278000002806DD236843F40043236023681B030D
:10279000FCD510BD052363615AB1022A06D06FF043
:1027A000020010BDFBD822B1022AF8D14FF4E1019A
:1027B000E2E7034B19684908DEE700BF0020044048
:1027C0003020002000F050B900F05EB900F070B980
:1027D000164B984210B5044612D003F58053984228
:1027E0000ED003F5805398420AD003F57533984212
:1027F00003D1022907D0042910D06FF0020010BDC8
:1028000039B10229F9D10520FFF784FB0221002804
:10281000F5D12046BDE8104000F094B90620FFF73E
:1028200079FB03210028F4D0E9E700BF0020044031
:1028300010B5044600F0DAF90F4B9C420DD003F5B9
:1028400080539C4209D003F580539C4205D003F588
:1028500075339C4208D0FD2010BD0028FCD0022812
:1028600014BFF920022010BD0228F5D0032814BFA0
:10287000F920042010BD00BF0020044070B50446BC
:102880000E461546FFF71EFF10BB1C4B9C4227D07F
:102890001B4B9C421DD01B4B9C4228D01A4B9C4288
:1028A00014D11A48FFF7C2FC4420FFF70DFB29465C
:1028B0002046FFF78DFF58B92046FFF7B9FF314694
:1028C00002462046BDE8704000F050B86FF00200AC
:1028D00070BD0F48FFF7AAFC0A20FFF7F5FAE6E7FC
:1028E0000C48FFF7A3FC0920FFF7EEFADFE70A48E0
:1028F000FFF79CFC2120FFF7E7FAD8E7002004400F
:1029000000300440004004400014084088F80210E1
:1029100070F8021064F802107CF8021000F06AB936
:1029200000F070B900F008B800F012B800F074B907
:1029300000F076B900F07AB910B504462046FFF7EA
:10294000F5FF0028FAD02046BDE81040FFF7E6BFAB
:1029500038B504460D462046FFF7EAFF0028FAD0B6
:1029600029462046BDE83840FFF7DABFF8B5324CBB
:10297000A04205460F4616460FD0304B98420CD069
:1029800003F58053984208D003F57533984204D07C
:102990002B492C488622FEF769FE01212846FFF7C5
:1029A000C9FF044608B12046F8BD08212846FFF7B4
:1029B00009FF04460028F6D101462846FFF706FF26
:1029C00004460028EFD101462846FFF7FDFE0446E5
:1029D0000028E8D1324639462846FFF7ABFE0028EA
:1029E00021DB154B9D4220D003F580539D421ED024
:1029F00003F580539D421CD003F575339D420CBFF7
:102A000003234FF0FF33104803EB430300EBC302F3
:102A10004FF0FF31DB00C2E902110021C1505160CB
:102A200011745161BFE70446BDE72346EBE701237C
:102A3000E9E70223E7E700BF00200440003004403C
:102A400094F80210E8F80210080000209142B1FB4F
:102A5000F2F304D302FB1311B1EB520F00D901338F
:102A600003611046704700BF05390329024607D8A5
:102A7000036823F4406343EA81210020116070471A
:102A80006FF00200704700BF61B1012906D10368F1
:102A9000002143F480530360084670476FF0020141
:102AA00008467047036823F4805303600846704764
:102AB0000346042942D8DFE801F01117253303004B
:102AC000026842F010021A601A6842F020021A608E
:102AD0001A6842F0400200201A607047026822F033
:102AE000100200201A607047026842F010021A605B
:102AF0001A6822F020021A601A6822F040020020B0
:102B00001A607047026842F010021A601A6822F0D8
:102B100020021A601A6842F0400200201A607047D2
:102B2000026842F010021A601A6842F020021A602D
:102B30001A6822F0400200201A6070476FF002000D
:102B4000704700BF032938B50D46044630D8234BE3
:102B50009C4236D003F580539C4227D003F5805326
:102B60009C4238D003F575339C420CBF03234FF0D1
:102B7000FF331B4AD35CBBB9236813F4004F4FEA01
:102B8000054523681FD023F400432360236805F420
:102B9000403523F440331D432560236843F400434C
:102BA000236023681B03FCD5002038BD0123E0E728
:102BB0000C490D4840F23312FEF758FD074B9C427A
:102BC000C8D10023D5E723F4403305F440351D4335
:102BD0002560002038BD0223CBE700BF0020044061
:102BE000E01B002094F8021018F902100068C0F3EE
:102BF000014070474368DB0654BF006A6FF00C0069
:102C0000704700BF436813F0800306BF0162184697
:102C10006FF00B00704700BF4068C0F3032070479F
:102C20004068C0F30330C0F1080070474B1E072B0B
:102C3000024606D8036823F00F03194300201160F1
:102C400070476FF00200704710B5064C217831B91B
:102C500005484FF4007200F0CFFB012323700020E1
:102C600010BD00BFE51F0020E41B0020032870B545
:102C7000054625D8E0B9174E3046FFF731FC04462B
:102C800001463046FFF720FC8CB1134E134B06EB88
:102C9000C51603EBC515E30703D52B680BB13068E8
:102CA0009847640806F1040605F10405F3D170BDE8
:102CB00001280CD00A4E0B4B022818BF1E46DBE73A
:102CC00009490A484E22FEF7D1FC0026D4E7084EF7
:102CD000D2E700BF00800040E41D0020E41B00207C
:102CE000000408400006084040F9021098F902105C
:102CF00000900040014B1878704700BFE41F00208F
:102D0000014B1868704700BF6800002070B50D4E79
:102D10000D4D761BB61006D0002455F8043B013447
:102D20009847A642F9D1094E094D761B2DF020F89F
:102D3000B61006D0002455F8043B01349847A6424B
:102D4000F9D170BD180A0020180A0020200A0020BE
:102D5000180A0020024B0146186800F003B800BFB3
:102D6000680000202DE9F04F01F10B06162E83B00C
:102D7000044624D8102900F2BA8000F08FFB1026F8
:102D800018220220B54F3A44A2F1080153688B4241
:102D900000F0BA805A68D96822F003021A449D688C
:102DA000E9608D60516841F001012046516003F1F6
:102DB000080500F079FB284603B0BDE8F08F36F037
:102DC000070600F19480B14200F2918000F066FBAA
:102DD000B6F5FC7FC0F09A81730A00F08F80042B57
:102DE00000F26F81B30903F1390003F1380CC3001D
:102DF0009A4F3B44A3F108055B689D4206D10CE065
:102E0000002980F22781DB689D4206D05A6822F0B3
:102E10000302911B0F29F3DD60463D69DFF850C2C4
:102E200065457CD06A6822F00302931B0F2B00F3E8
:102E30007B81002BC7E904CC80F26C81B2F5007F66
:102E400080F01A81D308796801334FEA521E0122BB
:102E500002FA0EF20A4357F833E0C5F808E007EB30
:102E6000C3010839E9607A6047F83350CEF80C5056
:102E7000831001219940914257D8114206D120F088
:102E800003004900114200F10400FAD007EBC00929
:102E90004D468646D5F80C80454508D11DE1002BEE
:102EA00080F22481D8F80C80454500F01681D8F8CE
:102EB000042022F00302931B0F2BF0DD2046D8E9FB
:102EC000025408EB060146F00106C8F80460EC6005
:102ED000A56043F00104C7E90411C1E902CC4C60CC
:102EE00048F8023000F0E0FA08F1080502E00C238F
:102EF00023600025284603B0BDE8F08F4FF400732F
:102F000040204FF03F0C73E7D3689A4208BF02306D
:102F10007FF440AF3D69DFF858C1654582D17A68DA
:102F20008310012199409142A7D9BD686B6823F0B5
:102F300003094E4503D8A9EB06030F2B7ADCDFF813
:102F400034B1474BDBF800201B680132334405EBFA
:102F5000090A00F0338103F580530F3323F47F68AF
:102F600028F00F084146204600F00EFB411C0246A7
:102F700000F0F380824500F2EE803A4B196841443C
:102F80001960084600F04E81DBF800100193013112
:102F90001BBFA2EB0A0A5044CBF80020186012F0C5
:102FA000070B00F01781CBF108010A44CBF58051E3
:102FB00090440831A1EB0801C1F30B0A51462046A9
:102FC000009200F0E1FA421CDDE9002300F04F819D
:102FD000801A00EB0A081968BA6048F001005144F1
:102FE000BD425060196000F02981B9F10F0F40F225
:102FF00027816868A9F10C0C2CF0070C00F0010087
:1030000040EA0C0068604FF0050E05EB0C00BCF1C7
:103010000F0FC0E901EE00F2328150681546124BE5
:103020001A688A4238BF1960104B1A688A4238BF42
:10303000196094E0AA1943F0010346F001066E609E
:103040002046BA60536000F02FFA0835284603B0D6
:10305000BDE8F08FD9681A44A1E600BF98040020AB
:1030600018200020E81F002010200020142000203D
:10307000A0040020A0080020B2F5206F4FEA5223E0
:1030800063D3142B00F2B78003F15C01C9005B33FA
:1030900007EB010E7958AEF1080E8E4500F09180D5
:1030A0004B6823F00303934202D989688E45F7D118
:1030B000D1F80CE07A68C5E9021ECEF80850CD6060
:1030C000D6E6142B59D9542B00F29D80330B03F113
:1030D0006F0003F16E0CC3008AE60EF1010E1EF0C4
:1030E000030F05F108057FF4D5AE51E04244454693
:1030F0005368D8F80C1043F00103536055F8083FAB
:103100002046D9608B6000F0CFF9F3E6F00806F1B5
:10311000080237E62A442046536843F0010353600F
:10312000083500F0C1F9E5E6A919204646F0010688
:1031300043F001046E60C7E90411C1E902CC4C60A0
:10314000AB5000F0B1F90835D4E6930903F1390129
:10315000C90038339CE7BD425FD0BD68686820F085
:1031600003084645A8EB060302D80F2B3FF762AFD2
:10317000204600F099F90025BCE603F15C0003F15C
:103180005B0CC30034E659F808394B4540F0968093
:1031900010F0030F00F1FF30F5D17B6823EA010343
:1031A0007B60490099423FF6C0AE19B9BDE64900BF
:1031B0000EF1040E1942FAD0704667E603F11008CA
:1031C000D0E69A104FF001087B6808FA02F21A4321
:1031D0007A6070E702EB08014942C1F30B0A5146DD
:1031E0002046009200F0D0F9431CDDE900237FF473
:1031F000EFAEDA46EFE6542B25D8130B03F16F013F
:10320000C9006E3344E7B3F5AA7F25D8F30B03F169
:10321000780003F1770CC300EAE5294B18684044B5
:103220001860B1E6CAF30B0CBCF1000F7FF4ACAE32
:10323000BD68C84448F001006860F0E61546EEE657
:103240000123536094E7B3F5AA7F23D8D30B03F18E
:103250007801C90077331BE740F25452934223D8D8
:10326000B30C03F17D0003F17C0CC300C0E5ABF1AE
:10327000080BD844A8EB02084FF0000AABE605F1B2
:1032800008012046009303F07DFABD68009B686842
:103290001968C4E640F254518B420BD8930C03F1E9
:1032A0007D01C9007C33F3E64FF47E737F204FF03D
:1032B0007E0C9DE54FF47E717E23E9E67B6870E726
:1032C000E81F0020844641EA000313F003036DD198
:1032D000403A41D351F8043B40F8043B51F8043BD9
:1032E00040F8043B51F8043B40F8043B51F8043BE0
:1032F00040F8043B51F8043B40F8043B51F8043BD0
:1033000040F8043B51F8043B40F8043B51F8043BBF
:1033100040F8043B51F8043B40F8043B51F8043BAF
:1033200040F8043B51F8043B40F8043B51F8043B9F
:1033300040F8043B51F8043B40F8043B51F8043B8F
:1033400040F8043B51F8043B40F8043B51F8043B7F
:1033500040F8043B403ABDD2303211D351F8043B1F
:1033600040F8043B51F8043B40F8043B51F8043B5F
:1033700040F8043B51F8043B40F8043B103AEDD2CE
:103380000C3205D351F8043B40F8043B043AF9D21F
:10339000043208D0D2071CBF11F8013B00F8013BF2
:1033A00001D30B8803806046704700BF082A13D3FF
:1033B0008B078DD010F003038AD0C3F10403D21A17
:1033C000DB071CBF11F8013B00F8013B80D331F84B
:1033D000023B20F8023B7BE7043AD9D3013A11F8CB
:1033E000013B00F8013BF9D20B7803704B78437036
:1033F0008B78837060467047830730B548D0541E81
:10340000002A3FD0CAB2034601E0013C3AD303F898
:10341000012B9D07F9D1032C2DD9CDB245EA052505
:103420000F2C45EA054536D9A4F1100222F00F0C05
:1034300003F1200EE6444FEA121C03F1100242E9A8
:10344000045542E9025510327245F8D10CF10102DF
:1034500014F00C0F03EB021204F00F0C13D0ACF1BC
:10346000040323F003030433134442F8045B934240
:10347000FBD10CF003042CB1CAB21C4403F8012B9D
:103480009C42FBD130BD64461346002CF4D1F9E7D1
:1034900003461446BFE71A46A446E0E7014803F096
:1034A0001BBC00BF20200020014803F017BC00BF58
:1034B000202000200FB400B5074983B004AB086892
:1034C00053F8042B8168019300F0EAF803B05DF82B
:1034D00004EB04B0704700BF6800002070B50546DB
:1034E00088B008460C4600F06BF8224EAA6B059097
:1034F00001214318CDE9066104A802210494039335
:10350000AC680190029122B3636E13F0010FB4F91D
:103510000C309AB201D1980525D5910406D4626E7B
:1035200043F4005322F40052A3816266284601AAA4
:10353000214603F02DFA636E002814BF4FF0FF35CB
:103540000A25DA0702D4A3899B0506D5284608B0C8
:1035500070BD284603F01EF8D6E7A06D03F0BEFB51
:10356000284608B070BDA06D03F0B6FBB4F90C306E
:103570009AB2D2E7BCF90210024B01461868FFF775
:10358000ADBF00BF6800002038B5074D00220446DB
:1035900008462A60FEF7EAFA431C00D038BD2B68C3
:1035A000002BFBD0236038BD2C2000200000000041
:1035B000000000000000000000000000000000000B
:1035C00090F800F06DE9024520F007016FF0000C63
:1035D00010F0070491F820F040F049804FF000040B
:1035E0006FF00700D1E9002391F840F000F10800E6
:1035F00082FA4CF2A4FA8CF283FA4CF3A2FA8CF31E
:103600004BBBD1E9022382FA4CF200F10800A4FA84
:103610008CF283FA4CF3A2FA8CF3E3B9D1E90423D8
:1036200082FA4CF200F10800A4FA8CF283FA4CF30F
:10363000A2FA8CF37BB9D1E9062301F1200182FAC9
:103640004CF200F10800A4FA8CF283FA4CF3A2FACF
:103650008CF3002BC6D0002A04BF04301A4612BADD
:10366000B2FA82F2FDE8024500EBD2007047D1E9E0
:10367000002304F00305C4F100004FEAC50514F06F
:10368000040F91F840F00CFA05F562EA05021CBF40
:1036900063EA050362464FF00004A9E7000000005A
:1036A0002DE9F04F2DED0A8BD3B01C4609EE101A10
:1036B000914609EE900A054603F006FB036817934E
:1036C00018460D94FFF77CFF16901DB1AB6B002BD5
:1036D00000F0488219EE102A536EDB0740F1478153
:1036E000B2F90C309AB2960409D419EE101A43F4C8
:1036F00000538B819AB24B6E23F400534B6615072F
:1037000040F1CC8019EE103A1B69002B00F0C68006
:1037100002F01A030A2B00F0D2804D469FED9C7BED
:103720002B78002429AACDE92744CDE91944CDE915
:103730001B448DED147B19EE909A129426929046BC
:1037400018940A94002B00F0B081AB4604E01BF8FB
:10375000013F002B00F0CD80252BF8D1BBEB0506F7
:1037600040F0CB809BF80030002B00F09E810023BE
:103770004FF0FF329BF801708DF87B3009930BF10D
:10378000010B08929A462B2420210BF1010BA7F183
:1037900020035A2B00F20081DFE813F00A03FE0039
:1037A000FE000503FE00FE00FE006A00FE00FE00B3
:1037B00076029E02FE008102A802FE00A3025B00C8
:1037C0005B005B005B005B005B005B005B005B0021
:1037D000FE00FE00FE00FE00FE00FE00FE008E0168
:1037E000FE001602ED018E018E018E01FE00FE002C
:1037F000FE00FE000003FE00FE004502FE00FE008B
:10380000FE002002FE00C202FE00FE009A07FE003B
:10381000FE00FE00FE00FE00FE00FE00FE008E0127
:10382000FE001602EF018E018E018E01E602EF010D
:10383000E801FE00F302FE0086024702D402E8011E
:10384000FE0020027D007607FE00FE007A07FE00E3
:103850007D00A7F1300300221BF8017B02EB8202FE
:1038600003EB4202A7F13003092BF5D909928EE749
:10387000484603F029FA43681B931846FFF7A0FE59
:103880001C900646484603F01FFA836819932021CE
:10389000002E40F0EA869BF8007076E719EE101AC9
:1038A00019EE900A19EE105A01F000FD002841F0BF
:1038B0002483AA8902F01A030A2B7FF42EAF19EE93
:1038C000101AB1F90E30002BFFF627AF4B6ED90757
:1038D00002D4920541F1568119EE101A19EE900AA0
:1038E00023464A4653B0BDEC0A8BBDE8F04F01F0C9
:1038F0009DBCBBEB050600F0D880289B3344289381
:10390000279B0133072BC8E90056279305DC08F1F4
:1039100008080A9B33440A9324E719EE101A26AAD2
:10392000484604F0A3F990B90DF1A408F1E719EEA7
:10393000101A26AA484604F099F9002800F0A6803B
:103940000C9B23B119EE900A194602F01BFF19EEE9
:10395000102A536ED80740F1FA8093895A0601F174
:10396000D5820A9853B0BDEC0A8BBDE8F08FB2F94E
:103970000C309F059AB23FF5B6AE19EE105AA86DFD
:1039800003F0AAF9B5F90C309AB2ACE6AFF30080B7
:103990000000000000000000002F00F086800023DF
:1039A0008DF8E4708DF87B300122CDE90B2307926E
:1039B000089310931393119339AD1AF002020E92EB
:1039C00002D0079A023207921AF084020F9205D1B0
:1039D000099A0799561A002E00F36883289C8BB128
:1039E000279B0DF17B0201330134C8F80020072B1F
:1039F0004FF0010228942793C8F8042000F39F8316
:103A000008F108080E9B83B1279B1FAA01330234DB
:103A1000C8F80020072B4FF0020228942793C8F81B
:103A2000042000F3998308F108080F9B802B00F015
:103A30006A82089B0B9A9E1A002E00F3AB821AF43E
:103A4000807F40F006820B9BC8F804301C44279B03
:103A5000C8F800500133072B2894279300F31983EB
:103A600008F108081AF0040F05D0099B079A9D1A5F
:103A7000002D00F38583DDE9092307998A42ACBF55
:103A80009B185B180A93002C7FF451AF00232793F7
:103A90000C9B1BB10C99484602F074FE0DF1A40872
:103AA0005D462B78002B7FF450AE289B002B41F015
:103AB0001882002327934AE70D9B073323F007035F
:103AC000B3EC027B8DED147BDDE914120D9322F033
:103AD00000430AEE101A0AEE903A4FF0FF32B0EEB1
:103AE0004A8AF0EE6A8AB74B51EC180B05F06EFF6C
:103AF000002840F0E884B34B51EC180B4FF0FF3234
:103B000005F046FF002840F0DE84DDE914010022C4
:103B1000002305F033FF002840F067879DF87B30D5
:103B2000A94DAA4A2AF0800A0321472FC8BF15468B
:103B300000220C9207910B9108921092139211920D
:103B4000002B3FF43AAF079A0132079235E7938989
:103B500099053FF503AF19EE104A906D03F0BEF8DA
:103B6000A389FBE6284602F015FDB3E59BF800703B
:103B70004AF0200A09E64AF0100A1AF0200F0D9BBD
:103B800000F04084073323F007031A465B6852F8BD
:103B9000084B0D921E46002BC0F24384089B013354
:103BA00000F0BC822AF08003079354EA060340F039
:103BB000B782089B002B40F0B882DDF81CA00023E0
:103BC00008930B9352AD1FE10D9A002352F8041B8A
:103BD0008DF87B308DF8E4100D92E5E60D9C54F8DD
:103BE000045B00268DF87B60002D00F09085089B1B
:103BF0005A1C00F051861A463146284603F0E0F878
:103C00000C90002801F02C810C9B0896591B0B91FD
:103C100021EAE1719DF87B300D9407910C96109686
:103C2000139611968CE74AF0100A1AF0200600F05D
:103C3000C9830D9B073323F007035E6853F8084BD5
:103C40000D932AF480630793002300228DF87B20D4
:103C5000089A551C00F0C080079921F0800A54EAA8
:103C6000060140F0B780002A40F00786002BA6D15D
:103C7000079B13F001030B9300F0148430238DF89D
:103C800047310DF24715BFE00D9B53F8042B099205
:103C9000002A80F2D583099A0D93524209929BF82B
:103CA00000704AF0040A70E51AF0200F40F0D28448
:103CB0001AF0100F40F0E7851AF0400F40F0A98687
:103CC0001AF4007F00F0DF850D9B0A9953F8042B4E
:103CD0000D9311705D46E4E69BF800708DF87B4013
:103CE00053E59BF800704AF0800A4EE55A4612F8F8
:103CF000017B2A2F01F06D82A7F13003092B934637
:103D000098BF002201F2E9801BF8017B02EB8202DE
:103D100003EB4202A7F13003092BF5D9089236E5EF
:103D20004AF010030793079B13F0200600F0598315
:103D30000D9B073323F007035E6853F8084B0D9380
:103D4000012382E70D9B53F8044B0D9330234AF077
:103D5000020278278DF87C301D4B189307928DF85E
:103D60007D700026022370E79BF80070682F03BF68
:103D70009BF801704AF4007A0BF1010B4AF0400AFB
:103D800003E59BF800706C2F03BF9BF801704AF0AD
:103D9000200A0BF1010B4AF0100AF6E49BF80070C0
:103DA0004AF0080AF1E49BF800704AF0010AECE4DA
:103DB0009DF87B30002B7FF46EAD9BF800708DF882
:103DC0007B10E2E4FFFFEF7FC0F90210C4F902109C
:103DD000D0F90210CDF81CA0012B00F0A181022B1C
:103DE00052AD20D1189A04F00F032409D35C05F8D2
:103DF000013D44EA0674360954EA0603F3D152AB96
:103E00005B1BDDF81CA00B9308990B989DF87B3089
:103E100081424FF00002B8BF01460C920791109208
:103E2000139211928CE604F00703E40844EA467406
:103E3000F608303354EA06012A4605F8013DF2D16E
:103E40000799CC0700F1758252AB5B1B8A460B9336
:103E5000DAE7652F40F3D780DDE914010022002363
:103E600005F082FD002800F0C681279BC14AC8F8F2
:103E70000020013301340122072B28942793C8F82E
:103E8000042000F3DE8408F10808209B129A934274
:103E900080F2D182169B179A1C44C8E90023279B05
:103EA00028940133072B279300F3238408F1080893
:103EB000129B5D1E002D7FF7D5AD102D279B41F382
:103EC0006781AD4F0E972246102619EE104A05E085
:103ED00008F10808103D102D40F3C1840133103261
:103EE000072BC8E90076CDE92732F1DD26AA214665
:103EF000484603F0BBFE00287FF422ADDDE92732FF
:103F00000DF1A408E6E7099B079A9E1A002E7FF799
:103F100090AD102E279B41F33C8097490F95224688
:103F200019EE105A0E910C4604E0103E102E08F1C6
:103F3000080819DD013310321021072BCDE9273293
:103F4000C8F80040C8F80410EFDD26AA2946484604
:103F50000DF1A40803F08AFE00287FF4F1AC103EB6
:103F6000102EDDE92732E5DC0F9D144601330E9A51
:103F7000C8F800203444072BCDE92734C8F8046082
:103F800000F3A983089B0B9A9E1A002E08F10808DB
:103F90007FF755AD102E279B40F30F8576480E9086
:103FA0004246214619EE108A044604E0103E102EC7
:103FB00002F1080216DD013310311020072BCDE984
:103FC000273114605060F1DD26AA4146484603F0CF
:103FD0004DFE00287FF4B4AC103E102EDDE92731F1
:103FE00029AAE8DC90460C4601330E9AC8F8002056
:103FF0003444072BCDE92734C8F8046000F3D4819A
:1040000008F108081BE5129B012B40F37381279EE2
:10401000C8F80050013601340123072E2894279652
:10402000C8F8043000F3968308F10808169B179A25
:1040300001361C44072EC8E90023CDE9276400F3AC
:10404000978308F10808DDE914010022002305F038
:104050008BFC002840F07B81129B0136013B01352F
:104060001C44072EC8F800502796C8F8043028943E
:1040700000F3518108F108081A9BC8F80430013692
:104080001C44072E22ABCDE92764C8F800307FF727
:10409000E7AC19EE101A26AA484603F0E7FD0028FF
:1040A0007FF44EAC289C0DF1A408DBE4102EDDE972
:1040B000273222DD1D95102419EE105A04E0103E1F
:1040C000102E08F1080817DD01332C491032072B98
:1040D000C8E90014CDE92732F1DD26AA2946484671
:1040E0000DF1A40803F0C2FD00287FF429AC103EB6
:1040F000102EDDE92732E7DC1D9DC8F8046001338E
:10410000B418072B1D4AC8F80020CDE9273400F366
:104110007D839DF87B3008F1080860E4CDF81CA091
:104120000A2C76F1000380F0318330340123DDF86E
:104130001CA08DF847410B930DF2471564E619EE6C
:10414000101A26AA484603F091FD00287FF4F8AB28
:10415000289C0DF1A40855E419EE101A26AA484629
:1041600003F084FD00287FF4EBAB289C0DF1A4083C
:104170005BE400BF00FA021014FA021004FA021005
:10418000102D279B20DD19EE107A102604E0103D3B
:10419000102D08F1080817DD0133AC4A1034072B45
:1041A000C8E90026CDE92734F1DD26AA394648467C
:1041B0000DF1A40803F05AFD00287FF4C1AB103DB7
:1041C000102DDDE92734E7DC0133A04AC8F804509C
:1041D0002C44072BCDE92734C8F800207FF74BACDF
:1041E00019EE101A26AA484603F040FD00287FF475
:1041F000A7AB289C3FE4209A002A40F32B81DDE9FD
:1042000011739F42A8BF1F46002F0BDD279B013370
:104210003C44072BC8E900572894279300F3D18525
:1042200008F10808119E002FA8BFF61B002E00F30E
:104230004483119B1AF4806F2B440B9340F0DF846E
:10424000209B129A934203DB1AF0010F00F0D283F5
:10425000169A17991444C8E90012279A2894013233
:10426000072A279200F3BB8508F10808129A0B99D8
:10427000AE18761AD51AAE42A8BF2E46002E0DDD16
:10428000279BC8F8001001333444072BC8F804609A
:104290002894279300F3068608F10808002EA8BF8B
:1042A000AD1B002D7FF7DEAB102D279B40F37087F1
:1042B000674F0E972246102619EE104A05E008F1C6
:1042C0000808103D102D40F3CA8201331032072B2D
:1042D000C8E90076CDE92732F1DD26AA2146484615
:1042E00003F0C4FC00287FF42BABDDE927320DF18D
:1042F000A408E6E71AF0010F7FF489AE279EC8F8FC
:104300000050013601340123072E28942796C8F85F
:1043100004307FF7AFAE19EE101A26AA484603F014
:10432000A5FC00287FF40CABDDE927640DF1A4089F
:10433000A2E6302B3FF463AD3023023A05F8013C8E
:1043400052AB9B1ADDF81CA00B9315465CE5129B43
:104350005D1E002D7FF790AE102D40F31F873C4A65
:10436000CDF820A0234619EE10AA0E92102714466D
:1043700005E008F10808103D102D40F3E3820136F6
:104380001033072EC8E90047CDE92763F1DD26AADF
:104390005146484603F06AFC00287FF4D1AADDE9C3
:1043A00027630DF1A408E6E719EE101A26AA48467D
:1043B00003F05CFC00287FF4C3AA289C0DF1A4083C
:1043C000FFF73DBB1AF0100340F03E811AF04002A7
:1043D00000F0C8820D9A52F8044B0D921E46A4B20A
:1043E0002FE4079B13F0100366D1079A12F04002E6
:1043F00000F0C6820D9A52F8044B0D921E46A4B2EC
:10440000012322E453F8044B0D931AF0100F4FD1FF
:104410001AF0400F48D044F3C036334624B2FFF7B9
:10442000BABB2D2364428DF87B3066EB4606CDF88F
:104430001CA001230CE41AF0010F3FF413AB29E593
:104440009BF800700D93FFF7A0B900BF04FA0210AB
:1044500014FA0210279BB649C8F800100133013442
:104460000121072B28942793C8F8041000F38084B7
:1044700008F10808002A40F04682129A0AF0010367
:1044800013433FF4EFAA169B179A1C44C8E9002374
:10449000279B28940133072B279300F3648308F1AB
:1044A000080841E252ADAFE41AF4007F40F0AB825D
:1044B000E6173346FFF76FBB0D9B53F8044B0D9384
:1044C0000123FFF7C2BBDDE9140102460B4605F0EC
:1044D0007DFA002840F02C86612F00F07D85412F69
:1044E00000F0A082089B013327F02003079300F01F
:1044F000C285472B00F0A985DDE914014AF48072DA
:1045000000290B924FF00003C0F2418441EC1B0BD9
:104510000E930C93079B462B00F07084452B00F004
:104520002285089B019324AB049321AB039320AB1A
:10453000029302230093484653EC1B2B00F0C4FF68
:10454000079B472B054640F05B861AF0010F564645
:10455000DDF82CA040F0DF84249B5B1B1293079BAB
:10456000472B00F01683079B462B00F08584209B89
:104570001193119B079A013B412A209300F0E68595
:10458000FAB20021002BB8BF119B8DF88820BABF6A
:10459000C3F101032D222B22092B8DF8892040F332
:1045A0006E850DF19704DFF898C1224610468CFB0A
:1045B0000321DA17C2EBA10202EB8201A3EB410156
:1045C000303100F8011C19466329134600F1FF320F
:1045D000ECDC3033D9B2831E9C4202F8011C40F25D
:1045E0000B8613460DF18A0201E013F8011B02F855
:1045F000011B9C42F9D10DF199030DF18A021B1A9E
:10460000134422AA9B1A1A93129B1A9A012B1A443A
:104610000B9240F3AF850B9B169A13440B930B9AA6
:10462000002326F4806622EAE27246F4807A109330
:104630000792139311930E9B002B40F0D98208939D
:104640009DF87B30FFF77CBA0D9B53F8044B0D931C
:10465000FFF7F7BA0D9B0A9853F8041B0D93C21786
:10466000C1E900025D46FFF71CBA199B002B3FF41D
:1046700012A9199B1B78002B3FF40DA99BF8007021
:104680004AF4806AFFF781B8CDF81CA0FFF74BBB56
:10469000284B18931AF0200654D00D9B073323F0B3
:1046A00007035E6853F8084B0D931AF0010F09D009
:1046B00054EA060306D030238DF87D704AF0020AD2
:1046C0008DF87C302AF4806307930223FFF7BDBA8C
:1046D000194B1893DEE719EE101A26AA484603F084
:1046E000C5FA00287FF42CA9289C0DF1A408FFF737
:1046F000A0B919EE101A26AA484603F0B7FA002806
:104700007FF41EA9289C0DF1A408FFF7D1BB089ADD
:104710000C95062A294628BF062208952B460792A3
:10472000064D0D940B92109113911191FFF708BA59
:1047300000FA0210D0F90210E4F90210F8F90210A0
:10474000676666661AF0100370D00D9B53F8044B31
:104750000D93AAE719EE101A26AA484603F086FA26
:1047600000287FF4EDA8DDE927640DF1A4085DE4DD
:1047700019EE101A26AA484603F078FA00287FF4AA
:10478000DFA8DDE927640DF1A4085CE4079B0022A3
:1047900003F48063CDE90B7808EE109A0DF5A47A46
:1047A000DDF86490174698460CE000232046314619
:1047B0000A2205F049F90A2C76F100031CD30446BD
:1047C0000E46AA4620460A220023314605F03CF94F
:1047D00030320AF1FF3501370AF8012CB8F1000F29
:1047E000E3D099F800309F42DFD1FF2FDDD00A2CB3
:1047F00076F1000380F0E580CDF864901297DDF843
:1048000030800B9F18EE109AFFF7F9BA19EE101AC4
:1048100026AA484603F02AFA00287FF491A89DF8BA
:104820007B30289C0DF1A408FFF7D9B81AF040029C
:1048300000F0B6800D9A52F8044B0D921E46A4B2B9
:1048400033E719EE101A26AA484603F00FFA00289B
:104850007FF476A8289C0DF1A408FFF716BB144638
:1048600001330E9AC8F800202C44072BC8F80450D6
:10487000CDE927347FF7F4A80BE4012BCDF81CA079
:104880007FF4ADAA51E40D9B0A9953F8042B5D46C1
:1048900011600D93FFF705B9284608960D94FEF7B1
:1048A0008FFE20EAE0719DF87B300B9007910C960B
:1048B000109613961196FFF743B9102E279B40F3DD
:1048C0009484BA480E904246214619EE108A102769
:1048D000044604E00832103E102E40F337820133C4
:1048E0001031072BC2E90047CDE92731F2DD26AAB6
:1048F0004146484603F0BAF900287FF421A8DDE9D3
:10490000273129AAE7E7169B17991C44C8E9001329
:10491000279B28940133072B279300F3248108F168
:104920000808002AC0F2FA82129AC8F8005001332F
:104930001444072BCDE92734C8F804207FF790A84A
:10494000FFF7A7BBDDF820A01C4601360E9BC8F878
:1049500000302C44072ECDE92764C8F804507FF7B7
:1049600089ABD8E40D9B1AF4007614BF53F8044BBE
:1049700053F8044B0D931CBF1646E4B2FFF761B920
:10498000079B13F400760D9B14BF53F8044B53F8A8
:10499000044B0D931CBF1646E4B20123FFF755B933
:1049A0000D9B1AF4007614BF53F8044B53F8044BD4
:1049B0000D931CBF1646E4B277E67C4A0E92FFF7D1
:1049C00013BB1C9B1B99ED1A1A46284603F0E0F80E
:1049D00099F801300BB109F10109204631460A224C
:1049E0000023002705F030F8E9E62D238DF87B3011
:1049F000FFF796B8129A0B99AE18761AD51AAE42EE
:104A0000A8BF2E464AE444F3C016334664B2FFF70B
:104A1000C2B80D9B0A9953F8042B0D9311805D4683
:104A2000FFF73FB830238DF87C3058238DF87D3068
:104A3000089B632B4AF0020400F3D38200230C93FB
:104A400039ADDDE914124AF481730B93002A27F083
:104A50002003A2460793C0F29B81002342EC1B1B5C
:104A60000E93612F00F04C83412F7FF453AD20AAA9
:104A700051EC1B0B03F00EF800224FF07F5304F0B3
:104A80000BFD02460B4643EC182B0022002304F0DA
:104A90006BFF08B101232093454B0F93089B1D9595
:104AA000CDE9107BCDE912A80CEE109ADDF83CB0F0
:104AB00059EC188B5E1E2C4605E000220023013EB7
:104AC00004F052FFE0B93B4B00224046494604F057
:104AD000E3FC8946804604F08FFF054604F072FC33
:104AE0000B4602464946404604F01EFB1BF80530C3
:104AF000A24604F8013B731C374680468946DCD148
:104B000049EC188B2C4BDDF84C8051EC180B002233
:104B10003E461CEE109ADDE9107BCDF840A01195C1
:104B2000DDF848A01D9D04F047FF002840F03882C2
:104B300051EC180B204B002204F016FF18B1119B0A
:104B4000D90700F12D82002E334606DB01332344C2
:104B5000302204F8012BA342FBD1631B564612936B
:104B6000DDF82CA0FBE419EE101A26AA484603F043
:104B70007DF800287EF4E4AEDDE92734209A0DF1BB
:104B8000A408CEE619EE103A986D02F0A7F8FEF7E9
:104B9000A3BE209B1193DA1C02DB089A93420DDD21
:104BA000023F27F020030793E3E400BF14FA02104A
:104BB000E4F90210000030400000E03FDDE911326E
:104BC0009342C0F28081F00740F19782169A134415
:104BD0000B93710503D5119B002B00F360820B9B97
:104BE00023EAE3730793672700231093139322E5C7
:104BF0002D2300228DF87B300892FEF7A4BF129B74
:104C0000CDF838B0DDF84CB00B9E199FCDF82CA034
:104C1000EB1808934246DDF870A0109B0F9519EE33
:104C2000108AA446BBF1000F30D0002B71D1013F98
:104C30000BF1FF3B1B9BC2E9003A279B0133D44495
:104C4000072BCDF8A0C0279367DC0832089B387883
:104C50009B1B8342A8BF0346002B1C460BDD2798F5
:104C600001309C440728C2E90063CDF8A0C027901A
:104C70005FDC38780832002CACBF051B0546002DE0
:104C800017DC0644109BBBF1000FCED1002B40D1A6
:104C90000F9D129BDDF82CA0DDF838B01997EB18AA
:104CA0009E429046324628BF1A4664460B92FFF752
:104CB000C7BA102D27981FDD1024634604E0103D6D
:104CC000102D02F1080216DD0130B4491033072817
:104CD000C2E90014CDE92703F1DD26AA4146484682
:104CE00002F0C4FF00287EF42BAE103D102DDDE94C
:104CF000270329AAE8DC9C460130A84B5560AC4448
:104D00000728CDE9270C13604DDC387808320644BB
:104D1000B8E7109B013B10938CE726AA4146484612
:104D200002F0A4FF00287EF40BAEDDF8A0C029AA93
:104D30008CE726AA4146484602F098FF00287EF4F8
:104D4000FFAD3878DDF8A0C029AA94E790460C465C
:104D500001330E9AC8F800203444072BCDE92734DC
:104D6000C8F8046000F3638108F10808FFF761BA2E
:104D700019EE101A26AA484602F078FF00287EF4A1
:104D8000DFAD209A289C0DF1A408FFF773BB0C93AC
:104D9000DDE9141202F100430BEE903A2D230BEEE5
:104DA000101A0E935DE626AA4146484602F05EFFC1
:104DB00000287EF4C5AD3878DDF8A0C029AA0644E5
:104DC00060E719EE101A26AA484602F04FFF0028A5
:104DD0007EF4B6AD289C0DF1A408FFF723BA19EEB6
:104DE000101A26AA484602F041FF00287EF4A8AD1A
:104DF000209B289C0DF1A408FFF738BA089B01936B
:104E000024AB049321AB039320AB029303230093C1
:104E1000484653EC1B2B00F057FB0378302B05461C
:104E200000F09A81209B089A56461344DDF82CA086
:104E3000EC1851EC1B0B0022002304F095FD10B17F
:104E40002346FFF78ABB249BA342BFF486AB3021E5
:104E50005A1C24921970249B9C42F9D8FFF77DBB01
:104E6000089B07930B930D949DF87B30089010904E
:104E700013901190FEF764BE209A1192002A40F31D
:104E80009181089906F001030B4340F03081119B9A
:104E90000B936627730500F103810B9B23EAE373F1
:104EA0000793A1E619EE101A26AA484602F0DEFE84
:104EB00000287EF445AD209D129B289C5D1B0DF1C2
:104EC000A408FFF7EBB9129B169A9A18119B0B9244
:104ED000002B40F354816727DCE700230893FEF79B
:104EE00056BC19EE101A19EE900A26AA02F0BEFE60
:104EF00000283EF4DEADFEF72ABD6B6EDC0705D45C
:104F0000AB89980502D4A86D01F0E8FE4FF0FF339D
:104F10000A93FEF726BD089BEC188AE7564210322A
:104F200080F270811D480E904246214619EE108A8B
:104F30001027044603E00832103E102E5BDD0133DB
:104F40001031072BC2E90047CDE92731F3DD26AA4E
:104F50004146484602F08AFE00287EF4F1ACDDE9C5
:104F6000273129AAE8E7089B5C1C24AB049321ABFA
:104F7000039320AB029302230093019453EC1B2B69
:104F8000484600F0A1FA054656462C44DDF82CA010
:104F90004FE7024A0E92FEF7E9BF00BF14FA021073
:104FA000109B24930F9B14F8012CD97B8A42234633
:104FB00009D1302003F8010C249B5A1E249213F8C7
:104FC000012C9142F6D0392A0BBF0F9A0132927A06
:104FD000D2B203F8012CC0E530238DF87C30782361
:104FE00024E5591C4846FDF7BDFE0546002800F0A3
:104FF0000C810C9025E590460C4601330E9AC8F8BA
:1050000000203444072BCDE92734C8F804607FF72B
:1050100046AA19EE101A26AA484602F027FE0028D2
:105020007EF48EACDDE927340DF1A4087CE419EEA2
:10503000101A26AA484602F019FE00287EF480AC19
:10504000289C0DF1A408FFF7F4B8089B002B08BFBB
:1050500001230893159B4AF48072002B0B92C0F237
:105060009B809DED147B0E900C90B0EE47BAF0EE55
:1050700067BAFFF756BA06230893FFF73DBA00292F
:1050800040F0A48030228DF88A200DF18B0230335D
:1050900002F8013B22ABD31A1A93FFF7B5BA672780
:1050A00019990B78FF2B00F0A3800024119A204659
:1050B00003E001300131FF2B08D0934206DAD21A07
:1050C0004B78002BF5D10B780134F4E7199111924C
:1050D00013901094109A139B1C9913440B9A01FB84
:1050E00003230B9323EAE3730793FFF7A4BA169BFA
:1050F000D31819440B916627CCE6119B0B9368E5F6
:1051000020AA51EC1B0B02F0C5FC00224FF07F538C
:1051100004F0C2F902460B4643EC182B0022002390
:1051200004F022FC08B1012320933C4B0F93B5E41B
:10513000159B3B4D3B4A002BB6BF2D239DF87B3082
:105140008DF87B302AF0800AFEF7EEBC07F10F02E3
:10515000D2B20121FFF716BA51EC1B0B002200233B
:1051600004F002FC00287FF45DAE089BC3F101034C
:10517000209358E6F4077FF552AAFFF74CBAC3F123
:1051800001031A4422EAE2730B92079367272BE587
:10519000254A0E92FFF764BB0C90F9E5224B0E9363
:1051A000FFF7D3BB089A06F0010656EA020304D1C2
:1051B0000123079366270B9316E5169B01331A44C8
:1051C00022EAE2730B92079366270DE50DF18A023E
:1051D0005DE70D9B9BF80170934653F8042B0D93EC
:1051E00042EAE2720892FEF7D0BA0F4A0E92AFE599
:1051F0000023109313936DE702231A93FFF704BA69
:10520000089CC1E6084A0E92F7E619EE102A938927
:1052100043F040039381FEF79ABB00BFD0F9021020
:10522000C8F90210CCF9021014FA021070B50C463D
:105230008989ADF58E6D21F00201ADF81410616E13
:105240001B91E189ADF81610E1690991616A0B9132
:105250001CA9029106914FF48061064604910791C2
:1052600018A80021CDE90032089101F031FDDDE9F7
:10527000003202A93046FEF713FA051E07DB02A929
:10528000304601F053F9002818BF4FF0FF35BDF844
:1052900014305B0603D5A38943F04003A38118981B
:1052A00001F018FD28460DF58E6D70BD38B5334BF5
:1052B0001B6805460C460BB19A6B12B3B4F90C305F
:1052C00018079AB225D5216900292DD012F00100C6
:1052D00007D00020A06060694042A06139B1002081
:1052E00038BD950758BF6069A0600029F7D1120644
:1052F00058BF0846F4D543F04003A3814FF0FF3078
:1053000038BD184601F046F9B4F90C3018079AB2C6
:10531000D9D4D1062AD5520714D4216943F0080301
:10532000A3819AB20029D1D102F42070B0F5007F98
:10533000CCD02146284601F0D3FCB4F90C302169C9
:105340009AB2C3E7216B51B104F14002914204D0FB
:10535000284601F017FAB4F90C30002222632169C3
:105360000022C4E9001223F02403D7E7092243F006
:1053700040032A604FF0FF30A38138BD6800002051
:10538000024B13B1024800F005B87047000000005E
:10539000B9660010002301461A46184603F0C6BB42
:1053A0002DE9F04F03690C69A34283B0C0F28780F6
:1053B000013C01F11405A30000F11408009355F815
:1053C000243058F82420013381469A4208EB8400A7
:1053D00005EB84070190B2FBF3F63BD30023AE4606
:1053E00040469B465EF804AB02681FFA8AFC06FB47
:1053F0000C334FEA134C4FEA1A4A06FB0ACA1FFA4B
:1054000083FCABEB0C0C1FFA8AF31CFA82FCC3EB97
:10541000124202EB2C421FFA8CFC4CEA0243774505
:1054200040F8043B4FEA224B4FEA1A43DAD2009B82
:1054300058F8033073B9019B043B984504D307E047
:10544000984504F1FF3403D253F80429002AF7D019
:10545000C9F81040484602F007F800282BDB013657
:105460004046002355F8041BD0F800C08AB29A1AAF
:105470000B0C12FA8CF2C3EB1C4303EB224392B2E7
:1054800042EA0342AF4240F8042B4FEA2343E9D2F9
:1054900058F8242008EB84036AB9043B984504D3E8
:1054A00007E0984504F1FF3403D253F80429002A99
:1054B000F7D0C9F81040304603B0BDE8F08F0020A7
:1054C00003B0BDE8F08F00BF2DE9F04F2DED068B46
:1054D000016C95B090469946CDE90489279D044614
:1054E00041B1426C4A60012393408B6001F05AFD48
:1054F00000232364B9F1000AB4BF012300232B6009
:105500007B4BBCBF2AF0004ACDF814A033EA0A0353
:1055100000F0B2809DED047B002251EC170BB0EE41
:10552000479AF0EE679A002304F01EFA074680B10E
:10553000269A01231360289B002B00F0DA826D4825
:105540001860431E0393039815B0BDEC068BBDE8AD
:10555000F08F12AB019313AB0093204653EC192B41
:10556000B0EE498AF0EE698A02F046F85FEA1A5610
:10557000054640F09980DDE912763E4406F232405D
:10558000202840F3AA83C0F140000AFA00FA06F28C
:10559000124028FA00F04AEA000003F003FF01235A
:1055A000013E0D93A1F1F871534B002203F0BCFDB5
:1055B00049A3D3E9002303F06FFF49A3D3E90023F4
:1055C00003F0B4FD80463046894603F0FBFE46A357
:1055D000D3E9002303F060FF02460B4640464946EC
:1055E00003F0A4FD8046894604F006FA00228346B3
:1055F00000234046494604F0C1F9002840F06C827F
:10560000BBF1160F00F25B823C4B03EBCB03D3E9FB
:10561000002351EC190B04F0B1F9002874D00023D9
:10562000BE1B0C93731E0BF1FF3B069300F14E82E1
:1056300000230993BBF1000F6DDA099BCDF81CB074
:10564000A3EB0B030993CBF100030B93249B092BD2
:105650004FF0000B68D8052B40F33D83043B2493A7
:105660000026249B023B032B00F29886DFE813F010
:105670004D044A0441042404269A42F20F73CAF3EB
:10568000130A13605AEA08031DD1289B002B00F06F
:105690007C861B4B03930833289A0398136015B03C
:1056A000BDEC068BBDE8F08F18EE903AC3F3130300
:1056B00051EC190B43F07F510D97A6F2FF36129F64
:1056C00041F4401170E7289B002B40F0D9830D4B2B
:1056D000039338E7AFF3008061436F63A787D23F3E
:1056E000B3C8608B288AC63FFB799F501344D33FD1
:1056F0000000F07F01FA02100000F83F28FB0210C2
:1057000028FA021024FA0210BE1B731E069300F141
:105710009A840C900990069B5B44CDE9063B0023DC
:105720000B93249B092B96D90023CDE92433012622
:105730004FF0FF330A960893089B0F930021616492
:10574000204601F009FC0390002800F02F86039BFF
:105750002364089B0E2B00F2F980002E00F0F680E7
:105760000799002940F37184BD4B01F00F0203EB50
:10577000C2034FEA2118C905D3E9006740F1038449
:10578000B84B51EC190BD3E9082303F0AFFF41EC00
:10579000180B08F00F084FF0030AB8F1000F13D0F0
:1057A000DFF8C09218F0010F09D030463946D9E928
:1057B000002303F071FE0AF1010A06460F465FEA74
:1057C000680809F10809EDD151EC180B32463B4647
:1057D00003F08CFF41EC1A0B0C9B5BB157EC1A6B7E
:1057E000A14B1AEE100A0022394604F0C7F800282F
:1057F00040F05285504603F0E5FD53EC1A2B03F0C0
:105800004BFE9A4B002203F091FC089B8046A1F1CD
:105810005079002B00F0F383079B1093089B0E93A5
:105820000A9B002B00F0C0840E9A8D4B9049DDF846
:105830000CA003EBC20353E90223002003F056FF40
:1058400042464B4603F070FC59EC1A8B41EC180BA6
:1058500049461AEE100A04F0CFF8074603F0B2FDED
:1058600002460B461AEE100A494603F05DFC30373B
:105870000AF8017B53EC182B06460F4604F07EF81D
:10588000002840F055854FF000080AEE105ACDF878
:1058900044B055465BEC18AB08EE104A44462AE08B
:1058A0000E9B01349C424BDA724B50465946002203
:1058B00003F0F2FD6F4B002282468B46304639469C
:1058C00003F0EAFD8946804604F096F8074603F0A7
:1058D00079FD02460B464046494603F025FC303729
:1058E00005F8017B52465B4606460F4604F046F833
:1058F000002840F0188532463B465B49002003F003
:1059000013FC52465B4604F039F80028C8D0109BBF
:10591000039A0793AA4618EE104A1AEE105A02E0AC
:10592000924500F0EA84D1461AF8013D392BF7D0B0
:105930000133DBB28AF80030079B01330793ABE1F8
:10594000DDF844B01AEE105A18EE104A139B002BE3
:10595000C0F29480079A0E2A00F39080404B03EB2C
:10596000C203D3E90089259B002B1BDA089B002B7F
:1059700018DC40F05D83404B00224046494603F06E
:105980008BFD02460B4651EC190B04F001F8DDF8D3
:1059900020A05646002800F0D082259BDDF80C8020
:1059A000DF43D2E242464B4651EC190B03F09EFE18
:1059B00004F022F80646834603F004FD42464B46B7
:1059C00003F06AFD0B46024651EC190B03F0ACFBE9
:1059D000DDF80CA0334630330AF8013B089B012B5D
:1059E00000F08E834FF0010B08EE105A08EE904A3B
:1059F0001D465446DA461DE042464B46304639467F
:105A000003F074FE03F0F8FF834603F0DBFC42462C
:105A10004B4603F041FD0AF1010A0B4602463946A6
:105A2000304603F081FB0BF13003AA4504F8013B3B
:105A300000F061830F4B002203F02EFD00220023B3
:105A400006460F4603F090FF0028D5D0A24618EE78
:105A5000105A18EE904A079B01330793D1461BE179
:105A600028FB021000FB02100000F03F00001C4069
:105A70000000E03F00002440000014400A9A002A81
:105A80003FD0249A012A40F39C82089B03F1FF38FF
:105A90000B9B4345C0F26E82A3EB0808089B002BCA
:105AA000C0F26683069A1A440692099A17461A4467
:105AB00009920121204601F023FB064625E001233F
:105AC000BE1B0C93731E06937FF5B2ADC6F10103A6
:105AD000099300230693ADE5584603F073FC424654
